:020000040000FA
:0400000013EF00F00A
:060008004B824CED04F0F8
:100018004B80E0CF40F040C0E0FF4B901000DCEF99
:1000280005F054EF02F0010E876E32C088FF2504F8
:100038002610D8A422EF00F024EF00F02EEF00F0F5
:10004800000E426E010E416E9BEC05F0080E876EA5
:100058002AC088FF020E25182610D8A436EF00F013
:1000680038EF00F042EF00F0000E426E010E416ED4
:100078009BEC05F0080E876E2BC088FF030E251831
:100088002610D8A44AEF00F04CEF00F09DEF02F0E4
:10009800000E426E010E416E9BEC05F0080E876E55
:1000A8002CC088FF9DEF02F0010E876E31C088FFDB
:1000B80025042610D8A463EF00F065EF00F06FEF79
:1000C80000F0000E426E010E416E9BEC05F0080E2A
:1000D800876E2AC088FF020E25182610D8A477EF4D
:1000E80000F079EF00F083EF00F0000E426E010E91
:1000F800416E9BEC05F0080E876E2BC088FF030E3F
:1001080025182610D8A48BEF00F08DEF00F09DEF96
:1001180002F04CEF00F0010E876E30C088FF250416
:100128002610D8A49AEF00F09CEF00F0A6EF00F09C
:10013800000E426E010E416E9BEC05F0080E876EB4
:100148002AC088FF020E25182610D8A4AEEF00F0AA
:10015800B0EF00F0BAEF00F0000E426E010E416EF3
:100168009BEC05F0080E876E2BC088FF030E251840
:100178002610D8A4C2EF00F0C4EF00F09DEF02F003
:100188004CEF00F0010E876E2FC088FF2504261063
:10019800D8A4D1EF00F0D3EF00F0DDEF00F0000EAF
:1001A800426E010E416E9BEC05F0080E876E2AC068
:1001B80088FF020E25182610D8A4E5EF00F0E7EF17
:1001C80000F0F1EF00F0000E426E010E416E9BEC64
:1001D80005F0080E876E2BC088FF030E2518261021
:1001E800D8A4F9EF00F0FBEF00F09DEF02F04CEF20
:1001F80000F0010E876E2EC088FF25042610D8A4B3
:1002080008EF01F00AEF01F014EF01F0000E426E62
:10021800010E416E9BEC05F0080E876E2AC088FF20
:10022800020E25182610D8A41CEF01F01EEF01F0CD
:1002380028EF01F0000E426E010E416E9BEC05F0B6
:10024800080E876E2BC088FF030E25182610D8A429
:1002580030EF01F032EF01F09DEF02F04CEF00F0CB
:10026800010E876E2DC088FF25042610D8A43FEF05
:1002780001F041EF01F04BEF01F0000E426E010E6C
:10028800416E9BEC05F0080E876E2AC088FF020EAF
:1002980025182610D8A453EF01F055EF01F05FEFB1
:1002A80001F0000E426E010E416E9BEC05F0080E47
:1002B800876E2BC088FF030E25182610D8A467EF79
:1002C80001F069EF01F09DEF02F04CEF00F0010E34
:1002D800876E2CC088FF25042610D8A476EF01F07D
:1002E80078EF01F082EF01F0000E426E010E416ED0
:1002F8009BEC05F0080E876E2AC088FF020E2518B1
:100308002610D8A48AEF01F08CEF01F096EF01F0E7
:10031800000E426E010E416E9BEC05F0080E876ED2
:100328002BC088FF030E25182610D8A49EEF01F0D5
:10033800A0EF01F09DEF02F04CEF00F0010E876E88
:100348002BC088FF25042610D8A4ADEF01F0AFEF2D
:1003580001F0B9EF01F0000E426E010E416E9BEC08
:1003680005F0080E876E2AC088FF020E2518261091
:10037800D8A4C1EF01F0C3EF01F0CDEF01F0000EFA
:10038800426E010E416E9BEC05F0080E876E2BC085
:1003980088FF030E25182610D8A4D5EF01F0D7EF53
:1003A80001F09DEF02F04CEF00F0010E876E2AC0BD
:1003B80088FF25042610D8A4E4EF01F0E6EF01F049
:1003C800F0EF01F0000E426E010E416E9BEC05F05D
:1003D800080E876E2AC088FF020E25182610D8A49A
:1003E800F8EF01F0FAEF01F004EF02F0000E426EB0
:1003F800010E416E9BEC05F0080E876E2BC088FF3E
:10040800030E25182610D8A40CEF02F00EEF02F008
:100418009DEF02F04CEF00F0010E876E380E886EEB
:10042800000E426E010E416E9BEC05F0020E876EC7
:100438003F0E886E000E426E010E416E9BEC05F079
:10044800040E876E6D0E886E000E426E010E416EB0
:100458009BEC05F0080E876E790E886E000E426ED2
:10046800010E416E9BEC05F09DEF02F0010E876EC8
:10047800790E886E000E426E010E416E9BEC05F0FF
:10048800020E876E540E886E000E426E010E416E8B
:100498009BEC05F0040E876E5E0E886E32EF02F05C
:1004A80049C047F04AC048F04850000AD8B463EF42
:1004B80002F0FF0AD8B492EF02F09DEF02F0475025
:1004C800000AD8B410EF02F0010AD8B4D9EF01F04D
:1004D800030AD8B4A2EF01F0010AD8B46BEF01F017
:1004E800070AD8B434EF01F0010AD8B4FDEF00F0E0
:1004F800030AD8B4C6EF00F0010AD8B48FEF00F0B1
:100508000F0AD8B458EF00F0010AD8B417EF00F07A
:10051800030AD8B49DEF02F09DEF02F04750FE0A9F
:10052800D8B43AEF02F0010AD8B410EF02F09DEF08
:1005380002F0120025042610D8A4A5EF02F0A7EFB8
:1005480002F0DAEF02F023502410D8A4AEEF02F044
:10055800B0EF02F0B4EF02F0000E1C6E010E1B6E3D
:100568008E50D8A4BAEF02F0BCEF02F0DAEF02F036
:100578008950D8A4C2EF02F0C4EF02F0DAEF02F01B
:100588001B041C10D8A4CBEF02F0CDEF02F0DAEF79
:1005980002F023502410D8A4D4EF02F0D6EF02F0D2
:1005A800DAEF02F0000E266E020E256E020E2518F6
:1005B8002610D8A4E2EF02F0E4EF02F056EF03F0C1
:1005C8008E50D8A4EAEF02F0ECEF02F00AEF03F045
:1005D8008950D8A4F2EF02F0F4EF02F00AEF03F02A
:1005E80003040410D8A4FBEF02F0FDEF02F00AEFB9
:1005F80003F023502410D8A404EF03F006EF03F00F
:100608000AEF03F0000E266E030E256E8E50D8A456
:1006180010EF03F012EF03F03CEF03F08950D8A479
:1006280018EF03F01AEF03F03CEF03F01B041C1063
:10063800D8A421EF03F023EF03F03CEF03F00350BD
:100648000410D8A42AEF03F02CEF03F03CEF03F0DA
:10065800000E246E0A0E236E000E1C6E000E1B6E1A
:10066800000E386E0C0E376E000E366E7F0E356E2D
:100678001B501C10D8A443EF03F045EF03F056EFCE
:1006880003F023502410D8A44CEF03F04EEF03F0EE
:1006980056EF03F0000E1C6E010E1B6E000E046E6A
:1006A800010E036E030E25182610D8A45EEF03F082
:1006B80060EF03F0ABEF03F08E50D8A466EF03F0C1
:1006C80068EF03F085EF03F08950D8A46EEF03F0CC
:1006D80070EF03F085EF03F01B041C10D8A477EF2C
:1006E80003F079EF03F085EF03F0000E246E0F0E90
:1006F800236E000E1C6E000E1B6E000E386E490E27
:10070800376E1B501C10D8A48CEF03F08EEF03F04B
:10071800ABEF03F023502410D8A495EF03F097EF24
:1007280003F0ABEF03F08E50D8A49DEF03F09FEFDA
:1007380003F0ABEF03F08950D8A4A5EF03F0A7EFBF
:1007480003F0ABEF03F0FF0E4A6EFE0E496E120087
:100758000F501010D8B4B3EF03F0B5EF03F04BEF20
:1007680004F0000E106E000E0F6E070E2114176EA7
:10077800186A17C041F018C042F0000E446E050E0A
:10078800436E13EC05F041C015F042C016F0EBEFD4
:1007980003F0000E0E6E010E0D6E0DEF04F0000E4C
:1007A8000E6E020E0D6E0DEF04F0000E0E6E040EAE
:1007B8000D6E0DEF04F0000E0E6E080E0D6E0DEFAF
:1007C80004F0000E0E6E100E0D6E0DEF04F015C045
:1007D80046F016C047F04750000AD8B4F6EF03F0C9
:1007E8000DEF04F04650000AD8B4CDEF03F0010A2B
:1007F800D8B4D3EF03F0030AD8B4D9EF03F0010A51
:10080800D8B4DFEF03F0070AD8B4E5EF03F00DEF33
:1008180004F021C041F022C042F0C0EC05F0020E05
:1008280025182610D8A41BEF04F01DEF04F029EFBB
:1008380004F021C041F022C042F0C0EC05F021C014
:1008480041F022C042F0C0EC05F0030E2518261036
:10085800D8A431EF04F033EF04F04BEF04F021C0DB
:1008680041F022C042F0C0EC05F021C041F022C0A6
:1008780042F0C0EC05F021C041F022C042F0C0ECCB
:1008880005F021C041F022C042F0C0EC05F0120092
:100898000600F2AA52EF04F054EF04F09BEF04F0C4
:1008A8003550275C2850800A3F6E3650800A3F58E2
:1008B800D8B061EF04F063EF04F06CEF04F0274A5E
:1008C800282A3750D66ED76AF294C2829BEF04F07A
:1008D800000E286E000E276E09040A10D8A477EFC0
:1008E80004F079EF04F09BEF04F08E50D8B47FEF5A
:1008F80004F081EF04F08DEF04F011501210D8A429
:1009080088EF04F08AEF04F08DEF04F04906D8A0D0
:100918004A0611EC06F0000E146E010E136E000E5E
:10092800126E000E116E000E106E010E0F6E4B92BD
:10093800110060EC06F045EC05F009040A10D8A493
:10094800A8EF04F0AAEF04F0D1EF04F09EEC02F057
:10095800ACEC03F0DBEC04F015EC00F04ABEBFEFA2
:1009680004F04A5006E14904D8B0BDEF04F0BFEFE7
:1009780004F09FEF04F0000E0A6E000E096E000EE0
:10098800896E000E8A6E000E8B6E000E8C6E000E45
:100998008D6E000E8E6E9FEF04F015EC00F0010EC8
:1009A800946E000E826E9FEF04F013EF00F08650F5
:1009B800D8B4E1EF04F0E3EF04F012EF05F086CFCE
:1009C80011F0126A13501410D8B4EDEF04F0EFEFE1
:1009D80004F012EF05F0F7EC05F00B500C10D8B44A
:1009E800F8EF04F0FAEF04F00EEF05F04ABE05EF59
:1009F80005F04A5008E14904D8A005EF05F007EFD3
:100A080005F00EEF05F04906D8A04A06000E0C6E58
:100A1800000E0B6E000E146E000E136E1200435083
:100A28004410D8B41AEF05F01CEF05F040EF05F0BC
:100A3800010E456E24EF05F0D89043364436452A1A
:100A480044AE29EF05F02BEF05F020EF05F04350F9
:100A5800415C44504258D8A034EF05F036EF05F019
:100A68003AEF05F04350415E4450425AD890443220
:100A78004332452E2BEF05F041C041F042C042F011
:100A880012008204D8A44BEF05F04DEF05F073EF88
:100A980005F009500A10D8A454EF05F056EF05F0F8
:100AA80073EF05F0000E4A6E090E496E000E246EB3
:100AB800050E236E000E266E010E256E000E1C6EAE
:100AC800000E1B6E000E106E010E0F6E29EC06F064
:100AD800000E0A6E010E096E000E946ED58E12007D
:100AE800000E926E000E936E010E946E000E956EBF
:100AF800000E966E000E976E0F0E986E000E9A6E90
:100B0800000E886E000E996E000E806E000E816ECB
:100B1800000E826E000E8B6E000E836E000E846EC9
:100B2800000E856E000E866E000E8F6E1200000E8F
:100B3800446E000E436EB4EF05F0000E466E000ED4
:100B4800456E454A462A465009E10A0E455CD8A03A
:100B5800B0EF05F0B2EF05F0A5EF05F0434A442ADF
:100B68004150435C42504458D8A0BDEF05F0BFEF58
:100B780005F0A1EF05F0120041A0C5EF05F0C7EFA1
:100B880005F0D4EF05F0D8904230446E4130436E02
:100B9800000E4324216E800E4420226EDBEF05F008
:100BA800D8904230436E4130216E43C022F012008B
:100BB800940EF66E0C0EF76E000EF86E00EE29F02D
:100BC80010EE16F00900F5CFEEFFE550E150FAE11E
:100BD80000EE01F0280EEE6AE806FDE14B904B921C
:100BE80000019DEF04F08E501118416E000E12188E
:100BF800426E41504210D8A404EF06F006EF06F00A
:100C08000CEF06F0000E0C6E000E0B6E10EF06F0E7
:100C1800000E0C6E010E0B6E1200F2943DEC06F005
:100C28003750D66ED76A23502410D8B41EEF06F07A
:100C380020EF06F025EF06F02306D8A0240627EFBC
:100C480006F0000E806EC2821200CECF1DF01E6A22
:100C5800CFCF1FF0206A1FC021F020C022F0215002
:100C6800426E416A1D504110216E1E504210226E84
:100C780012008DCF85FF8CCF84FF8BCF83FF8ACF67
:100C880082FF89CF81FF0DC089FF12003F305B4F83
:100C9800666D7D077F6F0700000168005E54796DFF
:100CA8003F38F28ECD80000E4A6E0A0E496E000E55
:100CB8000A6E000E096E120074EC05F069EC06F07D
:100CC80071EC06F055EC06F01200460ED56E375062
:100CD800D66ED76A000ECD6E1200000EF26EF28A42
:040CE800F28E120076
:020000040020DA
:08000000FFFFFFFFFFFFFFFF00
:020000040030CA
:0E000000FF061F1FF38385FFFFC0FFE0FF40D8
:00000001FF
